{
  "address": "0x20e589Eda469eCB348e8A0aC4FE96F2156cD01e7",
  "abi": [
    {
      "inputs": [
        {
          "internalType": "address",
          "name": "vrfCoordinatorV2",
          "type": "address"
        },
        {
          "internalType": "uint256",
          "name": "entranceFee",
          "type": "uint256"
        },
        {
          "internalType": "bytes32",
          "name": "gasLane",
          "type": "bytes32"
        },
        {
          "internalType": "uint64",
          "name": "subscriptionId",
          "type": "uint64"
        },
        {
          "internalType": "uint32",
          "name": "callbackGasLimit",
          "type": "uint32"
        },
        {
          "internalType": "uint256",
          "name": "interval",
          "type": "uint256"
        }
      ],
      "stateMutability": "nonpayable",
      "type": "constructor"
    },
    {
      "inputs": [
        {
          "internalType": "address",
          "name": "have",
          "type": "address"
        },
        {
          "internalType": "address",
          "name": "want",
          "type": "address"
        }
      ],
      "name": "OnlyCoordinatorCanFulfill",
      "type": "error"
    },
    {
      "inputs": [
        {
          "internalType": "uint256",
          "name": "currentBalance",
          "type": "uint256"
        },
        {
          "internalType": "uint256",
          "name": "numPlayers",
          "type": "uint256"
        },
        {
          "internalType": "uint256",
          "name": "raffleState",
          "type": "uint256"
        }
      ],
      "name": "Raffle_UpkeepNotNeeded",
      "type": "error"
    },
    {
      "inputs": [],
      "name": "Raffle__NotEnoughETHEntered",
      "type": "error"
    },
    {
      "inputs": [],
      "name": "Raffle__NotOpen",
      "type": "error"
    },
    {
      "inputs": [],
      "name": "Raffle__TransferFailed",
      "type": "error"
    },
    {
      "anonymous": false,
      "inputs": [
        {
          "indexed": true,
          "internalType": "address",
          "name": "player",
          "type": "address"
        }
      ],
      "name": "RaffleEnter",
      "type": "event"
    },
    {
      "anonymous": false,
      "inputs": [
        {
          "indexed": true,
          "internalType": "uint256",
          "name": "requestId",
          "type": "uint256"
        }
      ],
      "name": "RequestedRaffleWinner",
      "type": "event"
    },
    {
      "anonymous": false,
      "inputs": [
        {
          "indexed": true,
          "internalType": "address",
          "name": "winner",
          "type": "address"
        }
      ],
      "name": "WinnerPicked",
      "type": "event"
    },
    {
      "inputs": [
        {
          "internalType": "bytes",
          "name": "",
          "type": "bytes"
        }
      ],
      "name": "checkUpkeep",
      "outputs": [
        {
          "internalType": "bool",
          "name": "upkeepNeeded",
          "type": "bool"
        },
        {
          "internalType": "bytes",
          "name": "",
          "type": "bytes"
        }
      ],
      "stateMutability": "view",
      "type": "function"
    },
    {
      "inputs": [],
      "name": "enterRaffle",
      "outputs": [],
      "stateMutability": "payable",
      "type": "function"
    },
    {
      "inputs": [],
      "name": "getEntranceFee",
      "outputs": [
        {
          "internalType": "uint256",
          "name": "",
          "type": "uint256"
        }
      ],
      "stateMutability": "view",
      "type": "function"
    },
    {
      "inputs": [],
      "name": "getInterval",
      "outputs": [
        {
          "internalType": "uint256",
          "name": "",
          "type": "uint256"
        }
      ],
      "stateMutability": "view",
      "type": "function"
    },
    {
      "inputs": [],
      "name": "getLatestTimestamp",
      "outputs": [
        {
          "internalType": "uint256",
          "name": "",
          "type": "uint256"
        }
      ],
      "stateMutability": "view",
      "type": "function"
    },
    {
      "inputs": [],
      "name": "getNumWords",
      "outputs": [
        {
          "internalType": "uint256",
          "name": "",
          "type": "uint256"
        }
      ],
      "stateMutability": "pure",
      "type": "function"
    },
    {
      "inputs": [],
      "name": "getNumberOfPlayers",
      "outputs": [
        {
          "internalType": "uint256",
          "name": "",
          "type": "uint256"
        }
      ],
      "stateMutability": "view",
      "type": "function"
    },
    {
      "inputs": [
        {
          "internalType": "uint256",
          "name": "index",
          "type": "uint256"
        }
      ],
      "name": "getPlayer",
      "outputs": [
        {
          "internalType": "address",
          "name": "",
          "type": "address"
        }
      ],
      "stateMutability": "view",
      "type": "function"
    },
    {
      "inputs": [],
      "name": "getRaffleState",
      "outputs": [
        {
          "internalType": "enum Raffle.RaffleState",
          "name": "",
          "type": "uint8"
        }
      ],
      "stateMutability": "view",
      "type": "function"
    },
    {
      "inputs": [],
      "name": "getRecentWinner",
      "outputs": [
        {
          "internalType": "address",
          "name": "",
          "type": "address"
        }
      ],
      "stateMutability": "view",
      "type": "function"
    },
    {
      "inputs": [],
      "name": "getRequestConfirmations",
      "outputs": [
        {
          "internalType": "uint256",
          "name": "",
          "type": "uint256"
        }
      ],
      "stateMutability": "pure",
      "type": "function"
    },
    {
      "inputs": [
        {
          "internalType": "bytes",
          "name": "",
          "type": "bytes"
        }
      ],
      "name": "performUpkeep",
      "outputs": [],
      "stateMutability": "nonpayable",
      "type": "function"
    },
    {
      "inputs": [
        {
          "internalType": "uint256",
          "name": "requestId",
          "type": "uint256"
        },
        {
          "internalType": "uint256[]",
          "name": "randomWords",
          "type": "uint256[]"
        }
      ],
      "name": "rawFulfillRandomWords",
      "outputs": [],
      "stateMutability": "nonpayable",
      "type": "function"
    }
  ],
  "transactionHash": "0xe45742ed002b1fd165808013311e409b3ebb6578df4ab6625d62024410dd258a",
  "args": [
    "0x6168499c0cFfCaCD319c818142124B7A15E857ab",
    "10000000000000000",
    "0xd89b2bf150e3b9e13446986e571fb9cab24b13cea0a43ea20a6049a85cc807cc",
    10093,
    500000,
    "30"
  ],
  "numDeployments": 1,
  "solcInputHash": "ee04401f5898a48d234ce17f680f703d",
  "bytecode": "0x6101606040523480156200001257600080fd5b506040516200189d3803806200189d8339818101604052810190620000389190620001ad565b858073ffffffffffffffffffffffffffffffffffffffff1660808173ffffffffffffffffffffffffffffffffffffffff1660601b81525050508460a081815250508573ffffffffffffffffffffffffffffffffffffffff1660c08173ffffffffffffffffffffffffffffffffffffffff1660601b815250508360e081815250508267ffffffffffffffff166101008167ffffffffffffffff1660c01b815250508163ffffffff166101208163ffffffff1660e01b815250506000600160146101000a81548160ff02191690836001811115620001195762000118620002b5565b5b0217905550426002819055508061014081815250505050505050506200036b565b6000815190506200014b81620002e9565b92915050565b600081519050620001628162000303565b92915050565b60008151905062000179816200031d565b92915050565b600081519050620001908162000337565b92915050565b600081519050620001a78162000351565b92915050565b60008060008060008060c08789031215620001cd57620001cc620002e4565b5b6000620001dd89828a016200013a565b9650506020620001f089828a0162000168565b95505060406200020389828a0162000151565b94505060606200021689828a0162000196565b93505060806200022989828a016200017f565b92505060a06200023c89828a0162000168565b9150509295509295509295565b6000620002568262000267565b9050919050565b6000819050919050565b600073ffffffffffffffffffffffffffffffffffffffff82169050919050565b6000819050919050565b600063ffffffff82169050919050565b600067ffffffffffffffff82169050919050565b7f4e487b7100000000000000000000000000000000000000000000000000000000600052602160045260246000fd5b600080fd5b620002f48162000249565b81146200030057600080fd5b50565b6200030e816200025d565b81146200031a57600080fd5b50565b620003288162000287565b81146200033457600080fd5b50565b620003428162000291565b81146200034e57600080fd5b50565b6200035c81620002a1565b81146200036857600080fd5b50565b60805160601c60a05160c05160601c60e0516101005160c01c6101205160e01c610140516114b6620003e76000396000818161081201526108be015260006106c10152600061069e0152600061067d015260006106410152600081816102fa01526103f7015260008181610337015261038b01526114b66000f3fe6080604052600436106100c25760003560e01c806353a2c19a1161007f57806391ad27b41161005957806391ad27b414610238578063e55ae4e814610263578063f43b52cb146102a0578063fd6673f5146102cb576100c2565b806353a2c19a146101a45780635f1b0fd8146101cf5780636e04ff0d146101fa576100c2565b806309bc33a7146100c7578063115cbaf5146100f25780631fe543e31461011d5780632cfcc539146101465780634585e33b14610150578063473f1ddc14610179575b600080fd5b3480156100d357600080fd5b506100dc6102f6565b6040516100e991906110bc565b60405180910390f35b3480156100fe57600080fd5b5061010761031e565b60405161011491906110a1565b60405180910390f35b34801561012957600080fd5b50610144600480360381019061013f9190610e95565b610335565b005b61014e6103f5565b005b34801561015c57600080fd5b5061017760048036038101906101729190610da5565b610564565b005b34801561018557600080fd5b5061018e610789565b60405161019b9190610fda565b60405180910390f35b3480156101b057600080fd5b506101b96107b3565b6040516101c691906110bc565b60405180910390f35b3480156101db57600080fd5b506101e46107c2565b6040516101f191906110bc565b60405180910390f35b34801561020657600080fd5b50610221600480360381019061021c9190610df2565b6107cf565b60405161022f92919061101e565b60405180910390f35b34801561024457600080fd5b5061024d6108ba565b60405161025a91906110bc565b60405180910390f35b34801561026f57600080fd5b5061028a60048036038101906102859190610e3b565b6108e2565b6040516102979190610fda565b60405180910390f35b3480156102ac57600080fd5b506102b5610929565b6040516102c291906110bc565b60405180910390f35b3480156102d757600080fd5b506102e0610933565b6040516102ed91906110bc565b60405180910390f35b60007f0000000000000000000000000000000000000000000000000000000000000000905090565b6000600160149054906101000a900460ff16905090565b7f000000000000000000000000000000000000000000000000000000000000000073ffffffffffffffffffffffffffffffffffffffff163373ffffffffffffffffffffffffffffffffffffffff16146103e757337f00000000000000000000000000000000000000000000000000000000000000006040517f1cf993f40000000000000000000000000000000000000000000000000000000081526004016103de929190610ff5565b60405180910390fd5b6103f1828261093f565b5050565b7f000000000000000000000000000000000000000000000000000000000000000034101561044f576040517fbd4e069500000000000000000000000000000000000000000000000000000000815260040160405180910390fd5b6000600181111561046357610462611396565b5b600160149054906101000a900460ff16600181111561048557610484611396565b5b146104bc576040517f1425571c00000000000000000000000000000000000000000000000000000000815260040160405180910390fd5b6000339080600181540180825580915050600190039060005260206000200160009091909190916101000a81548173ffffffffffffffffffffffffffffffffffffffff021916908373ffffffffffffffffffffffffffffffffffffffff1602179055503373ffffffffffffffffffffffffffffffffffffffff167f0805e1d667bddb8a95f0f09880cf94f403fb596ce79928d9f29b74203ba284d460405160405180910390a2565b60006105a46040518060400160405280600281526020017f30780000000000000000000000000000000000000000000000000000000000008152506107cf565b509050806106135747600080549050600160149054906101000a900460ff1660018111156105d5576105d4611396565b5b6040517fe059521b00000000000000000000000000000000000000000000000000000000815260040161060a939291906110d7565b60405180910390fd5b60018060146101000a81548160ff0219169083600181111561063857610637611396565b5b021790555060007f000000000000000000000000000000000000000000000000000000000000000073ffffffffffffffffffffffffffffffffffffffff16635d3b1d307f00000000000000000000000000000000000000000000000000000000000000007f000000000000000000000000000000000000000000000000000000000000000060037f000000000000000000000000000000000000000000000000000000000000000060016040518663ffffffff1660e01b815260040161070295949392919061104e565b602060405180830381600087803b15801561071c57600080fd5b505af1158015610730573d6000803e3d6000fd5b505050506040513d601f19601f820116820180604052508101906107549190610e68565b9050807fcd6e45c8998311cab7e9d4385596cac867e20a0587194b954fa3a731c93ce78b60405160405180910390a250505050565b6000600160009054906101000a900473ffffffffffffffffffffffffffffffffffffffff16905090565b6000600163ffffffff16905090565b6000600361ffff16905090565b600060606000600160149054906101000a900460ff1660018111156107f7576107f6611396565b5b6000600181111561080b5761080a611396565b5b14905060007f00000000000000000000000000000000000000000000000000000000000000006002544261083f91906111b7565b1190506000806000805490501190506000804711905060008480156108615750835b801561086a5750825b80156108735750815b9050806040518060400160405280600381526020017f3078300000000000000000000000000000000000000000000000000000000000815250965096505050505050915091565b60007f0000000000000000000000000000000000000000000000000000000000000000905090565b60008082815481106108f7576108f66113c5565b5b9060005260206000200160009054906101000a900473ffffffffffffffffffffffffffffffffffffffff169050919050565b6000600254905090565b60008080549050905090565b600080805490508260008151811061095a576109596113c5565b5b602002602001015161096c9190611307565b90506000808281548110610983576109826113c5565b5b9060005260206000200160009054906101000a900473ffffffffffffffffffffffffffffffffffffffff16905080600160006101000a81548173ffffffffffffffffffffffffffffffffffffffff021916908373ffffffffffffffffffffffffffffffffffffffff1602179055506000600160146101000a81548160ff02191690836001811115610a1757610a16611396565b5b0217905550600067ffffffffffffffff811115610a3757610a366113f4565b5b604051908082528060200260200182016040528015610a655781602001602082028036833780820191505090505b5060009080519060200190610a7b929190610b70565b504260028190555060008173ffffffffffffffffffffffffffffffffffffffff1647604051610aa990610fc5565b60006040518083038185875af1925050503d8060008114610ae6576040519150601f19603f3d011682016040523d82523d6000602084013e610aeb565b606091505b5050905080610b26576040517fa1d04b3900000000000000000000000000000000000000000000000000000000815260040160405180910390fd5b8173ffffffffffffffffffffffffffffffffffffffff167f5b690ec4a06fe979403046eaeea5b3ce38524683c3001f662c8b5a829632f7df60405160405180910390a25050505050565b828054828255906000526020600020908101928215610be9579160200282015b82811115610be85782518260006101000a81548173ffffffffffffffffffffffffffffffffffffffff021916908373ffffffffffffffffffffffffffffffffffffffff16021790555091602001919060010190610b90565b5b509050610bf69190610bfa565b5090565b5b80821115610c13576000816000905550600101610bfb565b5090565b6000610c2a610c2584611133565b61110e565b90508083825260208201905082856020860282011115610c4d57610c4c61142d565b5b60005b85811015610c7d5781610c638882610d7b565b845260208401935060208301925050600181019050610c50565b5050509392505050565b6000610c9a610c958461115f565b61110e565b905082815260208101848484011115610cb657610cb5611432565b5b610cc1848285611294565b509392505050565b600082601f830112610cde57610cdd611428565b5b8135610cee848260208601610c17565b91505092915050565b60008083601f840112610d0d57610d0c611428565b5b8235905067ffffffffffffffff811115610d2a57610d29611423565b5b602083019150836001820283011115610d4657610d4561142d565b5b9250929050565b600082601f830112610d6257610d61611428565b5b8135610d72848260208601610c87565b91505092915050565b600081359050610d8a81611469565b92915050565b600081519050610d9f81611469565b92915050565b60008060208385031215610dbc57610dbb61143c565b5b600083013567ffffffffffffffff811115610dda57610dd9611437565b5b610de685828601610cf7565b92509250509250929050565b600060208284031215610e0857610e0761143c565b5b600082013567ffffffffffffffff811115610e2657610e25611437565b5b610e3284828501610d4d565b91505092915050565b600060208284031215610e5157610e5061143c565b5b6000610e5f84828501610d7b565b91505092915050565b600060208284031215610e7e57610e7d61143c565b5b6000610e8c84828501610d90565b91505092915050565b60008060408385031215610eac57610eab61143c565b5b6000610eba85828601610d7b565b925050602083013567ffffffffffffffff811115610edb57610eda611437565b5b610ee785828601610cc9565b9150509250929050565b610efa816111eb565b82525050565b610f09816111fd565b82525050565b610f1881611209565b82525050565b6000610f2982611190565b610f33818561119b565b9350610f438185602086016112a3565b610f4c81611441565b840191505092915050565b610f6081611282565b82525050565b6000610f736000836111ac565b9150610f7e82611452565b600082019050919050565b610f9281611226565b82525050565b610fa181611254565b82525050565b610fb08161125e565b82525050565b610fbf8161126e565b82525050565b6000610fd082610f66565b9150819050919050565b6000602082019050610fef6000830184610ef1565b92915050565b600060408201905061100a6000830185610ef1565b6110176020830184610ef1565b9392505050565b60006040820190506110336000830185610f00565b81810360208301526110458184610f1e565b90509392505050565b600060a0820190506110636000830188610f0f565b6110706020830187610fb6565b61107d6040830186610f89565b61108a6060830185610fa7565b6110976080830184610fa7565b9695505050505050565b60006020820190506110b66000830184610f57565b92915050565b60006020820190506110d16000830184610f98565b92915050565b60006060820190506110ec6000830186610f98565b6110f96020830185610f98565b6111066040830184610f98565b949350505050565b6000611118611129565b905061112482826112d6565b919050565b6000604051905090565b600067ffffffffffffffff82111561114e5761114d6113f4565b5b602082029050602081019050919050565b600067ffffffffffffffff82111561117a576111796113f4565b5b61118382611441565b9050602081019050919050565b600081519050919050565b600082825260208201905092915050565b600081905092915050565b60006111c282611254565b91506111cd83611254565b9250828210156111e0576111df611338565b5b828203905092915050565b60006111f682611234565b9050919050565b60008115159050919050565b6000819050919050565b600081905061122182611455565b919050565b600061ffff82169050919050565b600073ffffffffffffffffffffffffffffffffffffffff82169050919050565b6000819050919050565b600063ffffffff82169050919050565b600067ffffffffffffffff82169050919050565b600061128d82611213565b9050919050565b82818337600083830152505050565b60005b838110156112c15780820151818401526020810190506112a6565b838111156112d0576000848401525b50505050565b6112df82611441565b810181811067ffffffffffffffff821117156112fe576112fd6113f4565b5b80604052505050565b600061131282611254565b915061131d83611254565b92508261132d5761132c611367565b5b828206905092915050565b7f4e487b7100000000000000000000000000000000000000000000000000000000600052601160045260246000fd5b7f4e487b7100000000000000000000000000000000000000000000000000000000600052601260045260246000fd5b7f4e487b7100000000000000000000000000000000000000000000000000000000600052602160045260246000fd5b7f4e487b7100000000000000000000000000000000000000000000000000000000600052603260045260246000fd5b7f4e487b7100000000000000000000000000000000000000000000000000000000600052604160045260246000fd5b600080fd5b600080fd5b600080fd5b600080fd5b600080fd5b600080fd5b6000601f19601f8301169050919050565b50565b6002811061146657611465611396565b5b50565b61147281611254565b811461147d57600080fd5b5056fea2646970667358221220800fe325e158709e9e7f3f4f9b2dcaa5211cd38b0e624a466c3bc0f5472ef5b664736f6c63430008070033",
  "devdoc": {
    "author": "Vincent Verdugo",
    "details": "This implements Chainlink VRF v2 and Chainlink Keepers",
    "kind": "dev",
    "methods": {
      "checkUpkeep(bytes)": {
        "details": "this is the function that the Chainlink keeper nodes call they look for the `upkeepNeeded` to return true. The following should be true in order to return true: 1. Our time interval should have passed 2. The lottery should have at least 1 player, and have some ETH 3. Our subscription is funded with LINK 4. The lottery should be in an \"open\" state"
      }
    },
    "title": "A sample raffle contract",
    "version": 1
  },
  "userdoc": {
    "kind": "user",
    "methods": {},
    "notice": "This contract is for creating an untamperable decentralized smart contract",
    "version": 1
  },
  "storageLayout": {
    "storage": [
      {
        "astId": 871,
        "contract": "contracts/Raffle.sol:Raffle",
        "label": "s_players",
        "offset": 0,
        "slot": "0",
        "type": "t_array(t_address_payable)dyn_storage"
      },
      {
        "astId": 888,
        "contract": "contracts/Raffle.sol:Raffle",
        "label": "s_recentWinner",
        "offset": 0,
        "slot": "1",
        "type": "t_address"
      },
      {
        "astId": 891,
        "contract": "contracts/Raffle.sol:Raffle",
        "label": "s_raffleState",
        "offset": 20,
        "slot": "1",
        "type": "t_enum(RaffleState)866"
      },
      {
        "astId": 893,
        "contract": "contracts/Raffle.sol:Raffle",
        "label": "s_lastTimestamp",
        "offset": 0,
        "slot": "2",
        "type": "t_uint256"
      }
    ],
    "types": {
      "t_address": {
        "encoding": "inplace",
        "label": "address",
        "numberOfBytes": "20"
      },
      "t_address_payable": {
        "encoding": "inplace",
        "label": "address payable",
        "numberOfBytes": "20"
      },
      "t_array(t_address_payable)dyn_storage": {
        "base": "t_address_payable",
        "encoding": "dynamic_array",
        "label": "address payable[]",
        "numberOfBytes": "32"
      },
      "t_enum(RaffleState)866": {
        "encoding": "inplace",
        "label": "enum Raffle.RaffleState",
        "numberOfBytes": "1"
      },
      "t_uint256": {
        "encoding": "inplace",
        "label": "uint256",
        "numberOfBytes": "32"
      }
    }
  }
}